ACAM3KE
HFDTE061215
HFFXA050
HFPLTPILOT:Kevin Mitchell          
HFGTYGLIDERTYPE:DG400   (17)
HFGIDGLIDERID:ZS-GZP      
HFDTM100GPSDATUM:
HFRFWFIRMWAREVERSION:F2.6
HFRHWHARDWAREVERSION:300 Series Version 2
HFFTYFRTYPE:CAMBRIDGE AERO INSTRUMENTS, 302+
HFGPS:GARMIN,LVS-25,12,18000
HFPRSPRESSALTSENSOR:INTERSEMA, MS5534-AP, 20000
I033638FXA3941ENL4247REX
LCAMSBVER:5FWVER:F26300
B1130433340022S01925294EA0023300191000936000000
B1130453340022S01925294EA0023300191000956000000
B1130473340022S01925294EA0023300191000980000000
B1130493340022S01925294EA0023400191000992000000
B1130513340022S01925294EA0023300191000996000000
B1130533340022S01925294EA0023400191000996000000
B1130553340022S01925294EA0023400191000996000000
B1130573340022S01925294EA0023400191000996000000
B1130593340022S01925294EA0023500191000996000000
B1131013340022S01925294EA0023300191000996000000
B1131033340022S01925294EA0023300191000996000000
B1131053340022S01925294EA0023300191000996000000
B1131073340022S01925294EA0023400191000996000000
B1131093340022S01925294EA0023400191000996000000
B1131113340020S01925292EA0023400191000996000000
B1131123340018S01925289EA0023400191000996000000
B1131163340006S01925268EA0023600190000996000000
B1131203339987S01925236EA0023500191000996000000
B1131243339964S01925198EA0024400209000996000000
B1131283339950S01925176EA0027200240000996000000
B1131323339938S01925155EA0028900252000996000000
B1131363339928S01925129EA0030200266000996000000
B1131403339920S01925106EA0031500280000996000000
B1131443339912S01925081EA0032800293000996000000
B1131483339905S01925059EA0034500313000996000000
B1131523339896S01925038EA0036100325000996000000
B1131563339884S01925006EA0036900339000996000000
B1132003339876S01924976EA0039100364000996000000
B1132043339863S01924946EA0040700378000996000000
B1132083339853S01924917EA0042500399000996000000
B1132123339842S01924889EA0044200416000996000000
B1132163339837S01924860EA0045800433000996000000
B1132203339837S01924830EA0047300446000996000000
B1132243339845S01924794EA0048100459000996000000
B1132283339862S01924761EA0049600473000996000000
B1132323339885S01924732EA0050100476000996000000
B1132363339910S01924698EA0050100475000996000000
B1132403339940S01924664EA0050500481000996000000
B1132443339971S01924628EA0050700480000996000000
B1132483340001S01924592EA0051100490000996000000
B1132523340032S01924561EA0052200499000996000000
B1132563340066S01924534EA0053300512000996000000
B1133003340102S01924507EA0054700527000996000000
B1133043340139S01924475EA0056400546000996000000
B1133083340174S01924443EA0057600562000996000000
B1133123340209S01924409EA0058700568000996000000
B1133163340241S01924374EA0059300577000996000000
B1133203340273S01924335EA0060100587000996000000
B1133243340304S01924293EA0061000595000996000000
B1133283340335S01924254EA0061800606000996000000
B1133323340365S01924217EA0062900616000996000000
B1133363340396S01924180EA0063800626000996000000
B1133403340426S01924145EA0065000636000996000000
B1133443340457S01924110EA0065700647000996000000
B1133483340490S01924072EA0066600654000996000000
B1133523340522S01924032EA0067700667000996000000
B1133563340552S01923993EA0069100683000996000000
B1134003340578S01923953EA0070200695000996000000
B1134043340604S01923913EA0071000703000996000000
B1134083340634S01923874EA0071700709000996000000
B1134123340668S01923838EA0072500715000996000000
B1134163340700S01923806EA0073000723000996000000
B1134203340734S01923776EA0073600726000996000000
B1134243340772S01923741EA0073800732000996000000
B1134283340812S01923706EA0074600739000996000000
B1134323340852S01923669EA0075600751000996000000
B1134363340894S01923633EA0076500758000996000000
B1134403340933S01923595EA0077400772000996000000
B1134443340971S01923563EA0079100788000996000000
B1134483341007S01923533EA0080300801000996000000
B1134523341043S01923502EA0080900810000996000000
B1134563341081S01923468EA0081800817000996000000
B1135003341118S01923434EA0082600828000996000000
B1135043341154S01923400EA0083500836000996000000
B1135083341189S01923364EA0084400843000996000000
B1135123341223S01923329EA0085100853000996000000
B1135163341254S01923294EA0086100862000996000000
B1135203341285S01923257EA0086700870000996000000
B1135243341318S01923218EA0087400878000996000000
B1135283341349S01923179EA0088400887000996000000
B1135323341379S01923139EA0089000891000996000000
B1135363341409S01923096EA0089500897000996000000
B1135403341437S01923057EA0090200904000996000000
B1135443341466S01923013EA0090800914000996000000
B1135483341492S01922970EA0092300931000996000000
B1135523341519S01922928EA0093600943000996000000
B1135563341549S01922888EA0094400949000996000000
B1136003341582S01922848EA0095100959000996000000
B1136043341615S01922810EA0095900967000996000000
B1136083341652S01922770EA0096700976000996000000
B1136123341686S01922732EA0097800986000996000000
B1136163341721S01922693EA0098500994000996000000
B1136203341755S01922655EA0099401003000996000000
B1136243341788S01922618EA0100201012000996000000
B1136283341822S01922581EA0101101021000996000000
B1136323341856S01922544EA0101701027000996000000
B1136363341890S01922503EA0102401036000996000000
B1136403341924S01922464EA0103401048000996000000
B1136443341957S01922425EA0104501057000996000000
B1136483341991S01922382EA0105401066000996000000
B1136523342022S01922340EA0106501080000996000000
B1136563342055S01922298EA0107401084000996000000
B1137003342087S01922250EA0107601089000996000000
B1137043342119S01922204EA0108601100000996000000
B1137083342151S01922159EA0109701112000996000000
B1137123342182S01922113EA0110601121000996000000
B1137163342215S01922070EA0111601133000996000000
B1137203342247S01922030EA0112201134000996000000
B1137243342280S01921986EA0112001131000996000000
B1137283342316S01921944EA0111801128000952000000
B1137323342355S01921908EA0111601128000844000000
B1137363342394S01921873EA0111801131000756000000
B1137403342437S01921842EA0111701130000668000000
B1137443342484S01921814EA0111601126000648000000
B1137483342536S01921788EA0111301124000688000000
B1137523342587S01921766EA0111001123000664000000
B1137563342639S01921748EA0110701119000640000000
B1138003342692S01921736EA0110601118000608000000
B1138043342745S01921730EA0110301116000620000000
B1138083342796S01921722EA0110401114000616000000
B1138123342848S01921712EA0109901109000592000000
B1138163342899S01921699EA0109601103000484000000
B1138203342952S01921686EA0109201097000372000000
B1138243343006S01921675EA0108601090000324000000
B1138283343061S01921666EA0108401093000256000000
B1138323343110S01921654EA0108101090000192000000
B1138363343161S01921641EA0107601087000192000000
B1138403343213S01921628EA0107501090000136000000
B1138443343265S01921618EA0107701092000104000000
B1138483343322S01921612EA0108101097000088000000
B1138523343378S01921610EA0108501104000076000000
B1138563343434S01921610EA0109301111000064000000
B1139003343490S01921618EA0109901117000060000000
B1139043343550S01921631EA0109601111000060000000
B1139083343615S01921641EA0109601114000056000000
B1139123343684S01921643EA0109701113000060000000
B1139163343755S01921636EA0110201121000060000000
B1139203343824S01921630EA0110601127000056000000
B1139243343887S01921614EA0111201132000056000000
B1139283343945S01921588EA0111401128000060000000
B1139323344011S01921550EA0110401117000060000000
B1139363344089S01921515EA0110101124000060000000
B1139403344166S01921501EA0111701147000060000000
B1139443344239S01921500EA0113001153000064000000
B1139483344314S01921500EA0113401151000060000000
B1139523344392S01921495EA0113001147000072000000
B1139563344474S01921491EA0113201156000064000000
B1140003344548S01921484EA0114601174000068000000
B1140043344616S01921476EA0115801182000068000000
B1140083344685S01921465EA0115801179000068000000
B1140123344758S01921452EA0115801181000068000000
B1140163344833S01921430EA0116001183000068000000
B1140203344907S01921401EA0116401193000072000000
B1140243344981S01921376EA0117501205000072000000
B1140283345053S01921353EA0118701215000072000000
B1140323345123S01921335EA0119801231000064000000
B1140363345192S01921309EA0121101237000064000000
B1140403345261S01921281EA0121001235000068000000
B1140443345331S01921257EA0120801231000072000000
B1140483345404S01921241EA0120601231000072000000
B1140523345478S01921227EA0120601230000064000000
B1140563345548S01921207EA0120701230000060000000
B1141003345618S01921181EA0120201220000064000000
B1141043345684S01921136EA0118701200000068000000
B1141083345718S01921056EA0117701211000076000000
B1141123345708S01920993EA0119701236000076000000
B1141163345681S01920952EA0121301242000072000000
B1141203345635S01920947EA0121301242000064000000
B1141243345587S01920972EA0121401247000060000000
B1141283345536S01921010EA0122701262000060000000
B1141323345487S01921056EA0124401279000064000000
B1141363345435S01921102EA0125001281000064000000
B1141403345383S01921142EA0125201284000056000000
B1141443345333S01921185EA0125601285000072000000
B1141483345288S01921231EA0125701287000068000000
B1141523345245S01921279EA0126201295000064000000
B1141563345205S01921329EA0127001299000068000000
B1142003345166S01921381EA0127101298000068000000
B1142043345119S01921433EA0126701296000072000000
B1142083345071S01921482EA0127001300000072000000
B1142123345025S01921527EA0128001312000068000000
B1142163344977S01921573EA0129501328000072000000
B1142203344929S01921615EA0130501337000072000000
B1142243344884S01921662EA0130901340000064000000
B1142283344838S01921712EA0130401332000064000000
B1142323344780S01921721EA0130201333000080000000
B1142363344732S01921687EA0130301331000092000000
B1142403344715S01921621EA0130401334000080000000
B1142443344733S01921552EA0130501328000072000000
B1142483344789S01921494EA0129801325000068000000
B1142523344856S01921450EA0129601326000072000000
B1142563344920S01921407EA0130401337000068000000
B1143003344979S01921363EA0131001341000064000000
B1143043345037S01921319EA0131101338000060000000
B1143083345096S01921276EA0130901339000064000000
B1143123345157S01921233EA0131001340000056000000
B1143163345220S01921193EA0130401335000056000000
B1143203345287S01921153EA0130101333000064000000
B1143243345361S01921124EA0129701329000064000000
B1143283345440S01921142EA0129601329000060000000
B1143323345497S01921209EA0129501327000064000000
B1143363345510S01921292EA0129501328000060000000
B1143403345489S01921365EA0129201320000064000000
B1143443345453S01921428EA0128701316000064000000
B1143483345409S01921482EA0128701315000080000000
B1143523345359S01921528EA0128001307000072000000
B1143563345307S01921573EA0127401304000076000000
B1144003345250S01921613EA0127701309000084000000
B1144043345193S01921644EA0128601324000076000000
B1144083345140S01921662EA0130201336000072000000
B1144123345086S01921673EA0130601335000072000000
B1144163345031S01921683EA0130401335000064000000
B1144203344977S01921695EA0130801341000060000000
B1144243344928S01921714EA0132001357000056000000
B1144283344882S01921735EA0133001366000052000000
B1144323344834S01921748EA0133401371000052000000
B1144363344786S01921755EA0134201379000044000000
B1144403344737S01921757EA0134701385000044000000
B1144443344687S01921756EA0135201388000044000000
B1144483344637S01921753EA0135401388000044000000
B1144523344585S01921749EA0135201389000044000000
B1144563344533S01921743EA0134801384000048000000
B1145003344483S01921717EA0134501380000060000000
B1145043344466S01921656EA0134501383000064000000
B1145083344495S01921588EA0134501380000076000000
B1145123344563S01921552EA0134201377000072000000
B1145163344643S01921565EA0133701371000076000000
B1145203344716S01921619EA0133801377000076000000
B1145243344771S01921699EA0134301382000084000000
B1145283344791S01921794EA0134701382000076000000
B1145323344764S01921875EA0135301389000068000000
B1145363344709S01921911EA0135401388000068000000
B1145403344655S01921891EA0135001382000076000000
B1145443344633S01921829EA0134501381000076000000
B1145483344655S01921758EA0134701380000072000000
B1145523344719S01921717EA0134501377000068000000
B1145563344804S01921723EA0134101380000076000000
B1146003344885S01921742EA0135901404000088000000
B1146043344954S01921739EA0137601414000072000000
B1146083345012S01921710EA0137701411000064000000
B1146123345066S01921661EA0137101404000068000000
B1146163345119S01921604EA0136601400000072000000
B1146203345171S01921547EA0136401398000072000000
B1146243345222S01921488EA0136001389000072000000
B1146283345266S01921418EA0135201386000076000000
B1146323345305S01921348EA0135401392000076000000
B1146363345340S01921276EA0135701392000076000000
B1146403345363S01921201EA0135501387000076000000
B1146443345382S01921120EA0134601378000084000000
B1146483345401S01921036EA0134101375000084000000
B1146523345413S01920950EA0134701387000080000000
B1146563345419S01920877EA0136601403000080000000
B1147003345426S01920807EA0137601411000072000000
B1147043345432S01920734EA0137901414000064000000
B1147083345447S01920659EA0137801411000064000000
B1147123345462S01920579EA0137901412000060000000
B1147163345482S01920497EA0137401403000060000000
B1147203345502S01920412EA0136501393000056000000
B1147243345522S01920325EA0135501386000064000000
B1147283345539S01920243EA0135701394000080000000
B1147323345556S01920170EA0137401409000068000000
B1147363345573S01920105EA0137601407000060000000
B1147403345591S01920036EA0136901399000068000000
B1147443345588S01919959EA0136101392000076000000
B1147483345547S01919892EA0135401381000072000000
B1147523345484S01919846EA0134401375000072000000
B1147563345417S01919844EA0134301381000080000000
B1148003345359S01919876EA0134801380000084000000
B1148043345313S01919931EA0134501375000076000000
B1148083345279S01920001EA0133801370000076000000
B1148123345250S01920074EA0133601366000068000000
B1148163345222S01920146EA0133101362000072000000
B1148203345198S01920221EA0132501355000072000000
B1148243345181S01920296EA0131701346000076000000
B1148283345172S01920373EA0131001336000080000000
B1148323345166S01920448EA0129701320000080000000
B1148363345157S01920523EA0128001300000088000000
B1148403345150S01920605EA0127001299000084000000
B1148443345145S01920689EA0127001300000096000000
B1148483345138S01920773EA0127601308000088000000
B1148523345137S01920854EA0129101322000072000000
B1148563345141S01920929EA0129901329000064000000
B1149003345142S01921003EA0129901327000056000000
B1149043345136S01921077EA0129701323000068000000
B1149083345124S01921150EA0129101318000064000000
B1149123345106S01921222EA0129101323000068000000
B1149163345083S01921292EA0129801328000060000000
B1149203345059S01921362EA0130101330000060000000
B1149243345034S01921433EA0130601337000060000000
B1149283345011S01921504EA0131201340000056000000
B1149323344989S01921571EA0131101338000060000000
B1149363344964S01921643EA0130501332000060000000
B1149403344933S01921708EA0130701340000064000000
B1149443344884S01921736EA0132001351000076000000
B1149483344838S01921710EA0132201353000072000000
B1149523344832S01921648EA0133701377000068000000
B1149563344871S01921596EA0135301384000068000000
B1150003344934S01921574EA0135801391000068000000
B1150043344998S01921602EA0136601396000064000000
B1150083345031S01921671EA0136201388000060000000
B1150123345015S01921742EA0135601383000060000000
B1150163344967S01921778EA0135401383000064015000
B1150203344912S01921761EA0135101384000076015000
B1150243344867S01921718EA0135601397000080000000
B1150283344849S01921665EA0137401414000076000000
B1150323344867S01921605EA0138301419000068000000
B1150363344924S01921570EA0138601419000060000000
B1150403344995S01921591EA0138501420000064000000
B1150443345021S01921660EA0139801439000064000000
B1150483344998S01921709EA0140701438000060015000
B1150523344949S01921714EA0139901431000064015000
B1150563344902S01921680EA0139501431000072000000
B1151003344878S01921619EA0140201442000080000000
B1151043344893S01921550EA0141601457000084000000
B1151083344941S01921501EA0143001469000072000000
B1151123345008S01921491EA0143201466000068015000
B1151163345067S01921534EA0142701461000064015000
B1151203345083S01921608EA0142401456000064015000
B1151243345047S01921667EA0141601448000064015000
B1151283344989S01921703EA0141101445000076015000
B1151323344925S01921717EA0141401455000076000000
B1151363344886S01921666EA0143601482000076000000
B1151403344910S01921599EA0145201496000080000000
B1151443344975S01921591EA0147301516000084015000
B1151483345020S01921649EA0148401521000076015000
B1151523345015S01921723EA0148901529000076015000
B1151563344969S01921755EA0150001542000072015000
B1152003344928S01921719EA0150501544000076015000
B1152043344940S01921656EA0151601559000076015000
B1152083344998S01921636EA0152901573000072015000
B1152123345055S01921680EA0153501573000072015000
B1152163345067S01921764EA0153701582000072015000
B1152203345029S01921810EA0155301603000068015000
B1152243344985S01921791EA0156301602000068015000
B1152283344982S01921726EA0155801601000072015000
B1152323345029S01921680EA0157001617000064015000
B1152363345094S01921692EA0158001619000064015000
B1152403345135S01921769EA0157601615000064015000
B1152443345114S01921840EA0158801643000068015000
B1152483345067S01921861EA0160401647000064015000
B1152523345021S01921823EA0159601633000064015000
B1152563345018S01921748EA0159301637000064015000
B1153003345066S01921691EA0160201652000076015000
B1153043345135S01921693EA0161801666000076015000
B1153083345179S01921756EA0162501667000068015000
B1153123345167S01921834EA0162701669000068015000
B1153163345112S01921865EA0162701668000068015000
B1153203345064S01921829EA0162401668000072015000
B1153243345070S01921760EA0163001683000072015000
B1153283345122S01921710EA0163801678000072015000
B1153323345196S01921722EA0164101693000068015000
B1153363345237S01921788EA0165401703000072015000
B1153403345224S01921860EA0166201707000068015000
B1153443345175S01921886EA0165801701000068015000
B1153483345138S01921851EA0166101710000060015000
B1153523345157S01921795EA0166701712000064015000
B1153563345220S01921782EA0166501710000068015000
B1154003345271S01921838EA0166901718000068015000
B1154043345261S01921911EA0167201713000064015000
B1154083345210S01921942EA0166501710000068015000
B1154123345159S01921929EA0166501713000072015000
B1154163345122S01921894EA0166501708000072000000
B1154203345099S01921835EA0165501699000072000000
B1154243345089S01921764EA0165401703000088000000
B1154283345083S01921692EA0166301713000076000000
B1154323345071S01921627EA0167301719000072000000
B1154363345051S01921565EA0167101714000068000000
B1154403345021S01921510EA0166501710000068000000
B1154443344969S01921489EA0166001703000064000000
B1154483344915S01921521EA0165201696000064000000
B1154523344880S01921583EA0165101697000072000000
B1154563344873S01921660EA0165101698000068000000
B1155003344903S01921730EA0164801691000072000000
B1155043344966S01921757EA0163901686000072000000
B1155083345032S01921757EA0163401680000068000000
B1155123345096S01921745EA0163301677000072000000
B1155163345158S01921729EA0163201681000072000000
B1155203345222S01921713EA0163501684000072000000
B1155243345284S01921699EA0163801685000064000000
B1155283345344S01921678EA0163801686000060000000
B1155323345398S01921649EA0164001687000060000000
B1155363345445S01921612EA0163801681000060000000
B1155403345495S01921567EA0162701668000064000000
B1155443345545S01921517EA0162101660000068000000
B1155483345591S01921454EA0161701663000068000000
B1155523345630S01921401EA0162601676000060000000
B1155563345664S01921350EA0163301678000060000000
B1156003345694S01921296EA0163201679000056000000
B1156043345717S01921246EA0163601679000060000000
B1156083345740S01921196EA0162201658000064000000
B1156123345766S01921132EA0159701634000072000000
B1156163345790S01921063EA0158101618000072000000
B1156203345808S01920990EA0156501602000076000000
B1156243345820S01920911EA0155301592000076000000
B1156283345824S01920833EA0155401597000080000000
B1156323345824S01920761EA0155701596000068000000
B1156363345826S01920687EA0155001586000060000000
B1156403345825S01920607EA0154101578000060000000
B1156443345818S01920526EA0154101584000064000000
B1156483345813S01920457EA0154201582000060000000
B1156523345807S01920388EA0153401565000064000000
B1156563345796S01920317EA0152101557000064000000
B1157003345783S01920248EA0151501550000080000000
B1157043345770S01920178EA0150701542000076000000
B1157083345762S01920106EA0150501539000072000000
B1157123345765S01920035EA0150001534000064000000
B1157163345766S01919961EA0149501529000060000000
B1157203345764S01919888EA0149101526000056000000
B1157243345760S01919815EA0148801522000052000000
B1157283345762S01919741EA0148201516000052000000
B1157323345762S01919668EA0148301524000068000000
B1157363345764S01919600EA0149101528000060000000
B1157403345766S01919529EA0148501518000060000000
B1157443345769S01919451EA0147401508000056000000
B1157483345769S01919374EA0146901506000052000000
B1157523345765S01919300EA0146801503000048000000
B1157563345760S01919223EA0146401499000048000000
B1158003345755S01919147EA0146201496000048000000
B1158043345753S01919069EA0145801491000048000000
B1158083345751S01918989EA0145301486000048000000
B1158123345743S01918911EA0144701480000064000000
B1158163345735S01918832EA0144101473000076000000
B1158203345733S01918752EA0143601471000084000000
B1158243345740S01918676EA0144201477000076000000
B1158283345753S01918607EA0144501480000084000000
B1158323345770S01918541EA0144501478000080000000
B1158363345787S01918475EA0144501479000076000000
B1158403345805S01918412EA0144801483000072000000
B1158443345822S01918352EA0145401488000064000000
B1158483345837S01918295EA0145701491000064000000
B1158523345846S01918234EA0145701492000060000000
B1158563345853S01918174EA0145801490000064000000
B1159003345863S01918112EA0145601488000060000000
B1159043345877S01918050EA0145101482000056000000
B1159083345891S01917987EA0144401473000060000000
B1159123345907S01917923EA0143901470000064000000
B1159163345912S01917858EA0143101459000060000000
B1159203345912S01917793EA0142201453000064000000
B1159243345905S01917727EA0141601446000060000000
B1159283345892S01917658EA0141301448000064000000
B1159323345879S01917596EA0141901455000060000000
B1159363345865S01917536EA0141601444000056000000
B1159403345835S01917478EA0140801438000060000000
B1159443345795S01917424EA0140101429000068000000
B1159483345748S01917374EA0139401422000068000000
B1159523345695S01917335EA0138801417000068000000
B1159563345640S01917299EA0139001425000068000000
B1200003345595S01917262EA0139901433000060000000
B1200043345553S01917223EA0140401434000056000000
B1200083345512S01917181EA0139701426000052000000
B1200123345470S01917134EA0139001417000052000000
B1200163345428S01917084EA0138201408000052000000
B1200203345383S01917036EA0137401401000060000000
B1200243345339S01916986EA0137301405000068000000
B1200283345300S01916937EA0137401405000072000000
B1200323345263S01916882EA0137101398000064000000
B1200363345228S01916822EA0136401391000064000000
B1200403345194S01916760EA0136301395000072000000
B1200443345162S01916703EA0136501396000072000000
B1200483345135S01916643EA0136201390000072000000
B1200523345114S01916578EA0136201393000072000000
B1200563345094S01916510EA0136201390000068000000
B1201003345083S01916440EA0135801386000060000000
B1201043345077S01916363EA0135201379000060000000
B1201083345057S01916291EA0134701375000068000000
B1201123345007S01916243EA0134301373000072000000
B1201163344951S01916217EA0134701382000068000000
B1201203344895S01916198EA0134801375000064000000
B1201243344834S01916192EA0133801367000060000000
B1201283344774S01916202EA0133301360000052000000
B1201323344719S01916231EA0132901355000072000000
B1201363344665S01916265EA0132601353000064000000
B1201403344611S01916298EA0132501352000068000000
B1201443344556S01916330EA0132301351000072000000
B1201483344505S01916357EA0132301351000060000000
B1201523344459S01916387EA0132201346000052000000
B1201563344408S01916421EA0131301337000052000000
B1202003344357S01916454EA0130901335000060000000
B1202043344309S01916491EA0130801333000076000000
B1202083344265S01916525EA0130701331000072000000
B1202123344227S01916565EA0130401328000068000000
B1202163344188S01916610EA0130401329000072000000
B1202203344150S01916655EA0130801338000080000000
B1202243344113S01916691EA0132001351000068000000
B1202283344078S01916722EA0132801355000056000000
B1202323344039S01916750EA0132801351000056000000
B1202363344000S01916782EA0132801355000048000000
B1202403343962S01916816EA0133401363000048000000
B1202443343924S01916843EA0133701364000048000000
B1202483343884S01916867EA0133701364000048000000
B1202523343845S01916889EA0133501357000060000000
B1202563343798S01916908EA0133101358000056000000
B1203003343755S01916929EA0133801370000052000000
B1203043343716S01916951EA0134701376000052000000
B1203083343675S01916973EA0134401367000060000000
B1203123343624S01916993EA0134301373000072000000
B1203163343576S01917008EA0134701376000068000000
B1203203343529S01917025EA0135501386000060000000
B1203243343484S01917043EA0136301396000056000000
B1203283343439S01917060EA0137301403000060000000
B1203323343394S01917078EA0137701408000060000000
B1203363343350S01917098EA0138201415000052000000
B1203403343307S01917120EA0139001423000052000000
B1203443343266S01917143EA0139601426000056000000
B1203483343226S01917169EA0139801428000056000000
B1203523343183S01917192EA0139901428000060000000
B1203563343140S01917208EA0140001434000064000000
B1204003343100S01917223EA0140901444000060000000
B1204043343060S01917237EA0141001441000060000000
B1204083343018S01917253EA0140801439000064000000
B1204123342970S01917272EA0140201429000060000000
B1204163342926S01917307EA0139801427000056000000
B1204203342886S01917349EA0139601423000056000000
B1204243342850S01917400EA0139301420000064000000
B1204283342821S01917462EA0139201423000064000000
B1204323342791S01917523EA0139701426000060000000
B1204363342759S01917588EA0139801429000060000000
B1204403342730S01917650EA0140501440000060000000
B1204443342700S01917702EA0140901440000060000000
B1204483342662S01917751EA0140701437000056000000
B1204523342620S01917791EA0140501435000052000000
B1204563342575S01917800EA0140201429000052000000
B1205003342548S01917760EA0139201415000056000000
B1205043342561S01917700EA0137801405000064000000
B1205083342607S01917658EA0136701392000072000000
B1205123342671S01917640EA0135901386000064000000
B1205163342737S01917623EA0135401379000068000000
B1205203342801S01917600EA0134901379000076000000
B1205243342858S01917574EA0135601393000084000000
B1205283342908S01917552EA0137001403000084000000
B1205323342958S01917532EA0137201401000080000000
B1205363343012S01917511EA0136601393000076000000
B1205403343066S01917485EA0135801385000068000000
B1205443343117S01917449EA0135101380000060000000
B1205483343162S01917406EA0134701377000056000000
B1205523343205S01917357EA0134601376000056000000
B1205563343246S01917307EA0134901382000064000000
B1206003343285S01917262EA0135501386000064000000
B1206043343326S01917216EA0135401386000060000000
B1206083343372S01917171EA0135601387000056000000
B1206123343417S01917127EA0135701389000052000000
B1206163343460S01917081EA0135901393000048000000
B1206203343500S01917037EA0136501397000052000000
B1206243343541S01916991EA0136601399000056000000
B1206283343581S01916945EA0136901406000052000000
B1206323343619S01916898EA0137601413000048000000
B1206363343655S01916851EA0138001412000052000000
B1206403343695S01916800EA0137301404000056000000
B1206443343720S01916734EA0136801398000056000000
B1206483343702S01916673EA0136001388000056000000
B1206523343650S01916651EA0134801376000056000000
B1206563343594S01916668EA0134301374000056000000
B1207003343543S01916695EA0134101375000060000000
B1207043343500S01916720EA0134601378000060000000
B1207083343455S01916747EA0134301371000064000000
B1207123343407S01916785EA0133901373000068000000
B1207163343363S01916822EA0135101389000064000000
B1207203343324S01916860EA0136101396000056000000
B1207243343286S01916896EA0136901403000052000000
B1207283343251S01916930EA0137401406000052000000
B1207323343216S01916967EA0137801409000052000000
B1207363343181S01917003EA0137401405000060000000
B1207403343142S01917041EA0137301407000060000000
B1207443343108S01917080EA0137801408000056000000
B1207483343075S01917119EA0137501401000056000000
B1207523343042S01917164EA0136701397000056000000
B1207563343009S01917214EA0136401393000048000000
B1208003342975S01917260EA0136101387000048000000
B1208043342931S01917276EA0135501377000060000000
B1208083342891S01917233EA0134101369000060000000
B1208123342897S01917173EA0134401382000064000000
B1208163342936S01917133EA0134801370000060000000
B1208203342993S01917095EA0133501357000064000000
B1208243343053S01917055EA0132301351000072000000
B1208283343113S01917013EA0132401355000084000000
B1208323343173S01916978EA0132701356000080000000
B1208363343233S01916947EA0132701356000068000000
B1208403343294S01916919EA0132401354000064000000
B1208443343356S01916896EA0132901361000056000000
B1208483343416S01916877EA0133401364000060000000
B1208523343478S01916855EA0133601369000056000000
B1208563343541S01916856EA0134201372000052000000
B1209003343577S01916916EA0133601352000060000000
B1209043343551S01916986EA0131601339000072000000
B1209083343499S01917002EA0131401346000076000000
B1209123343468S01916959EA0131801345000072000000
B1209163343486S01916887EA0131201339000088015000
B1209203343516S01916822EA0132101358000088000000
B1209243343538S01916763EA0133401368000088000000
B1209283343539S01916703EA0133101360000080000000
B1209323343500S01916653EA0131701346000080000000
B1209363343443S01916630EA0131001343000080000000
B1209403343382S01916633EA0131201346000076000000
B1209443343328S01916653EA0131801350000068000000
B1209483343274S01916681EA0131801348000060000000
B1209523343222S01916712EA0132201354000056000000
B1209563343174S01916748EA0132601355000064000000
B1210003343130S01916794EA0133101363000072000000
B1210043343083S01916825EA0134601380000072000000
B1210083343036S01916844EA0135101379000068000000
B1210123342988S01916865EA0134801377000072000000
B1210163342938S01916887EA0135101386000072000000
B1210203342891S01916906EA0136201397000076000000
B1210243342848S01916921EA0137101404000072000000
B1210283342806S01916932EA0137601405000068000000
B1210323342759S01916943EA0137001398000072000000
B1210363342707S01916961EA0137401410000068000000
B1210403342668S01916943EA0138601419000064000000
B1210443342666S01916890EA0138801419000060000000
B1210483342706S01916847EA0139101426000064000000
B1210523342765S01916859EA0139701430000060000000
B1210563342796S01916925EA0139501421000064000000
B1211003342769S01916994EA0138801421000072000000
B1211043342714S01917024EA0139101424000068015000
B1211083342671S01916997EA0139501432000064015000
B1211123342674S01916939EA0140101438000064015000
B1211163342723S01916907EA0140801444000060015000
B1211203342783S01916937EA0141001444000064015000
B1211243342802S01917015EA0141001441000068015000
B1211283342769S01917077EA0141401451000072015000
B1211323342717S01917086EA0141801451000072015000
B1211363342687S01917046EA0142301460000068015000
B1211403342707S01916994EA0142701461000068015000
B1211443342763S01916980EA0142901463000072015000
B1211483342818S01917020EA0143001465000076015000
B1211523342827S01917098EA0143501474000072015000
B1211563342789S01917146EA0144601483000076015000
B1212003342745S01917133EA0144601478000076015000
B1212043342744S01917069EA0144101475000072015000
B1212083342793S01917034EA0144401483000068015000
B1212123342853S01917069EA0144801482000072015000
B1212163342860S01917149EA0145001486000072015000
B1212203342808S01917195EA0145501492000072015000
B1212243342757S01917176EA0146001499000076015000
B1212283342756S01917117EA0146501500000072015000
B1212323342809S01917086EA0146201496000068015000
B1212363342869S01917130EA0146001495000072015000
B1212403342874S01917214EA0146601503000064015000
B1212443342824S01917255EA0147401506000064015000
B1212483342774S01917229EA0147401513000072015000
B1212523342763S01917171EA0147401509000068015000
B1212563342805S01917123EA0147101503000072015000
B1213003342874S01917132EA0147101507000068015000
B1213043342917S01917198EA0147501513000068015000
B1213083342901S01917273EA0147701512000088015000
B1213123342845S01917290EA0147801514000080015000
B1213163342809S01917247EA0147901519000076015000
B1213203342819S01917192EA0148501523000068015000
B1213243342870S01917167EA0149001524000068015000
B1213283342930S01917201EA0148901524000064015000
B1213323342961S01917273EA0148901522000064015000
B1213363342949S01917351EA0148501519000064015000
B1213403342904S01917398EA0148501522000068015000
B1213443342853S01917387EA0148501518000072015000
B1213483342837S01917327EA0147801515000076015000
B1213523342871S01917268EA0147601513000080015000
B1213563342936S01917260EA0147901517000076015000
B1214003342988S01917315EA0147801513000072015000
B1214043342991S01917398EA0147701513000076015000
B1214083342948S01917454EA0147901518000068015000
B1214123342896S01917453EA0148401524000064015000
B1214163342866S01917406EA0148301520000064015000
B1214203342854S01917344EA0147601512000060015000
B1214243342844S01917279EA0147601514000064000000
B1214283342834S01917218EA0147801517000060000000
B1214323342823S01917158EA0148001516000056000000
B1214363342810S01917095EA0147701513000056000000
B1214403342798S01917032EA0147501511000056000000
B1214443342772S01916973EA0147301509000056000000
B1214483342726S01916935EA0147201509000060000000
B1214523342666S01916933EA0147201511000068000000
B1214563342610S01916952EA0147801519000064000000
B1215003342562S01916977EA0148301518000056000000
B1215043342511S01917000EA0148101517000064000000
B1215083342460S01917021EA0148401523000064000000
B1215123342415S01917049EA0148901525000064000000
B1215163342368S01917085EA0148801522000060000000
B1215203342319S01917120EA0148901526000056000000
B1215243342273S01917149EA0149601537000056000000
B1215283342232S01917177EA0150201537000052000000
B1215323342185S01917202EA0150201537000048000000
B1215363342139S01917225EA0150301539000048000000
B1215403342091S01917251EA0150401538000052000000
B1215443342044S01917281EA0150201536000056000000
B1215483341995S01917307EA0150101537000056000000
B1215523341944S01917329EA0149901535000056000000
B1215563341895S01917350EA0149801532000060000000
B1216003341846S01917388EA0149401526000060000000
B1216043341808S01917454EA0149101530000060000000
B1216083341782S01917527EA0149601531000056000000
B1216123341757S01917600EA0149201525000048000000
B1216163341736S01917675EA0148801522000056000000
B1216203341751S01917752EA0148201511000064000000
B1216243341807S01917804EA0146601494000076000000
B1216283341874S01917810EA0145501489000072000000
B1216323341930S01917782EA0145001486000068000000
B1216363341979S01917741EA0144801482000064000000
B1216403342029S01917702EA0144701482000060000000
B1216443342078S01917670EA0144601482000056000000
B1216483342129S01917639EA0144501479000052000000
B1216523342182S01917609EA0144001474000048000000
B1216563342236S01917579EA0143601471000048000000
B1217003342288S01917548EA0143501471000048000000
B1217043342340S01917520EA0143701474000048000000
B1217083342390S01917493EA0143701473000048000000
B1217123342441S01917462EA0143701473000060000000
B1217163342488S01917427EA0143501469000060000000
B1217203342536S01917388EA0142901463000056000000
B1217243342584S01917350EA0142801466000060000000
B1217283342632S01917316EA0143201469000056000000
B1217323342678S01917283EA0142901463000056000000
B1217363342728S01917245EA0142501461000056000000
B1217403342776S01917206EA0142801465000056000000
B1217443342821S01917160EA0142801461000060000000
B1217483342863S01917111EA0142301458000060000000
B1217523342899S01917060EA0142301456000056000000
B1217563342926S01917000EA0141701448000056000000
B1218003342949S01916933EA0141301450000056000000
B1218043342979S01916873EA0142301463000060000000
B1218083343018S01916825EA0143201470000064000000
B1218123343060S01916779EA0143901478000068000000
B1218163343084S01916725EA0144101471000060000000
B1218203343068S01916665EA0142301446000068000000
B1218243343004S01916652EA0140201432000072000000
B1218283342940S01916677EA0139401431000076000000
B1218323342889S01916718EA0140401445000080000000
B1218363342860S01916779EA0141601455000076000000
B1218403342878S01916846EA0142301461000076000000
B1218443342928S01916874EA0142801465000076000000
B1218483342975S01916841EA0142801464000076015000
B1218523342974S01916774EA0143301474000076015000
B1218563342932S01916743EA0144701489000072015000
B1219003342886S01916769EA0145601491000072015000
B1219043342867S01916835EA0145701494000068015000
B1219083342888S01916900EA0146301502000064015000
B1219123342936S01916930EA0146701499000068015000
B1219163342991S01916900EA0146201495000068015000
B1219203343008S01916835EA0146501508000068015000
B1219243342986S01916781EA0147501516000068015000
B1219283342940S01916768EA0148401524000064015000
B1219323342899S01916807EA0148401517000068015000
B1219363342888S01916878EA0148301523000068015000
B1219403342912S01916942EA0149201530000056015000
B1219443342964S01916972EA0149201527000056015000
B1219483343016S01916948EA0149101530000060015000
B1219523343034S01916890EA0149601538000056015000
B1219563343013S01916835EA0149901539000056015000
B1220003342966S01916812EA0150601546000064015000
B1220043342919S01916837EA0151401549000064015000
B1220083342902S01916903EA0151001541000072015000
B1220123342936S01916971EA0150501544000064015000
B1220163342992S01916990EA0151301555000060015000
B1220203343038S01916960EA0151801551000064015000
B1220243343051S01916896EA0151201550000064015000
B1220283343031S01916846EA0151701563000064015000
B1220323343001S01916808EA0152201555000072015000
B1220363342951S01916800EA0150901543000072015000
B1220403342906S01916843EA0149901532000068015000
B1220443342904S01916921EA0148901523000068015000
B1220483342947S01916985EA0148901529000068015000
B1220523343008S01917002EA0149301532000068015000
B1220563343055S01916965EA0149701539000064015000
B1221003343058S01916907EA0149601531000072015000
B1221043343012S01916877EA0149101528000068015000
B1221083342960S01916911EA0149101528000076015000
B1221123342945S01916986EA0149101528000080015000
B1221163342980S01917058EA0148701521000076015000
B1221203343045S01917090EA0147801514000076015000
B1221243343110S01917072EA0147701518000076015000
B1221283343164S01917039EA0148101522000068015000
B1221323343212S01917004EA0148601525000060000000
B1221363343259S01916967EA0148401520000056000000
B1221403343303S01916922EA0147801516000052000000
B1221443343344S01916872EA0147401511000052000000
B1221483343385S01916818EA0147401514000056000000
B1221523343421S01916765EA0147601515000064000000
B1221563343456S01916714EA0147601516000068000000
B1222003343491S01916661EA0147601515000068000000
B1222043343529S01916612EA0148001522000060000000
B1222083343571S01916568EA0148701528000056000000
B1222123343612S01916523EA0148601525000048000000
B1222163343658S01916478EA0147901516000048000000
B1222203343702S01916426EA0147401511000048000000
B1222243343747S01916374EA0147001509000048000000
B1222283343796S01916327EA0146901509000048000000
B1222323343849S01916284EA0146601506000052000000
B1222363343901S01916243EA0146601507000052000000
B1222403343949S01916204EA0146801509000048000000
B1222443343996S01916170EA0147001511000048000000
B1222483344046S01916142EA0146901508000048000000
B1222523344100S01916110EA0146401504000048000000
B1222563344153S01916072EA0146301501000048000000
B1223003344204S01916029EA0146201501000048000000
B1223043344254S01915985EA0146101499000048000000
B1223083344304S01915944EA0146101498000048000000
B1223123344358S01915914EA0145701494000048000000
B1223163344418S01915903EA0145201488000048000000
B1223203344478S01915901EA0144601484000048000000
B1223243344538S01915895EA0144201479000052000000
B1223283344595S01915876EA0143601467000064000000
B1223323344637S01915817EA0142201454000064000000
B1223363344629S01915743EA0141101440000064000000
B1223403344566S01915717EA0138801414000068000000
B1223443344503S01915743EA0138501434000092000000
B1223483344453S01915776EA0140101438000084000000
B1223523344408S01915812EA0139801428000076000000
B1223563344362S01915863EA0138801420000072000000
B1224003344321S01915920EA0139001425000072000000
B1224043344280S01915971EA0138901422000064000000
B1224083344235S01916016EA0138401416000064000000
B1224123344186S01916055EA0138201417000064000000
B1224163344140S01916094EA0138501419000072000000
B1224203344098S01916142EA0138901422000072000000
B1224243344054S01916191EA0139001423000072000000
B1224283343997S01916210EA0138801420000072000000
B1224323343953S01916167EA0139201427000072000000
B1224363343958S01916100EA0139301424000068000000
B1224403344014S01916063EA0139301430000072000000
B1224443344065S01916101EA0140801449000080000000
B1224483344058S01916170EA0140901437000080000000
B1224523343996S01916185EA0140401438000080015000
B1224563343959S01916126EA0140601447000084015000
B1225003343987S01916067EA0142201465000076015000
B1225043344044S01916070EA0143201468000068015000
B1225083344070S01916135EA0143601474000064015000
B1225123344037S01916193EA0143901479000068015000
B1225163343985S01916189EA0144801483000072015000
B1225203343965S01916132EA0144801487000072015000
B1225243343993S01916080EA0145601494000072000000
B1225283344045S01916081EA0145901493000068015000
B1225323344076S01916145EA0145501489000072015000
B1225363344058S01916217EA0145601495000076015000
B1225403344002S01916245EA0145901495000068015000
B1225443343952S01916205EA0145601487000064015000
B1225483343962S01916133EA0145301497000076015000
B1225523344017S01916122EA0146201502000072015000
B1225563344053S01916185EA0146201498000076015000
B1226003344026S01916262EA0146001496000080015000
B1226043343961S01916269EA0146001498000080015000
B1226083343933S01916206EA0146201504000076015000
B1226123343966S01916150EA0146701506000084015000
B1226163344028S01916145EA0146901513000076015000
B1226203344072S01916194EA0148101523000072015000
B1226243344074S01916267EA0148401521000068015000
B1226283344028S01916313EA0148301524000064015000
B1226323343970S01916298EA0148701524000060015000
B1226363343948S01916235EA0148501526000060015000
B1226403343978S01916184EA0149201537000060000000
B1226443344035S01916184EA0149301533000060015000
B1226483344071S01916245EA0149501541000056015000
B1226523344059S01916318EA0149901539000060000000
B1226563344002S01916340EA0150001538000064000000
B1227003343955S01916289EA0149701540000068000000
B1227043343957S01916219EA0150101543000068000000
B1227083344013S01916184EA0150201537000068000000
B1227123344074S01916232EA0149101531000080000000
B1227163344072S01916321EA0149501536000076000000
B1227203344011S01916362EA0149401534000076015000
B1227243343954S01916315EA0149801543000072015000
B1227283343965S01916248EA0151101559000072000000
B1227323344015S01916228EA0152201560000064000000
B1227363344065S01916284EA0150601537000076000000
B1227403344054S01916374EA0150301549000084000000
B1227443343994S01916404EA0151601558000080015000
B1227483343954S01916347EA0152001564000084015000
B1227523343980S01916291EA0153001574000072000000
B1227563344036S01916304EA0153301574000072015000
B1228003344061S01916373EA0153301576000068000000
B1228043344032S01916436EA0153601582000064015000
B1228083343978S01916445EA0154401586000060015000
B1228123343940S01916395EA0154301585000060015000
B1228163343952S01916336EA0154701596000060000000
B1228203343998S01916317EA0155501595000060000000
B1228243344050S01916352EA0154701588000068015000
B1228283344063S01916426EA0154701592000064000000
B1228323344027S01916479EA0155401599000064000000
B1228363343970S01916477EA0155301595000060000000
B1228403343927S01916423EA0154901591000064000000
B1228443343893S01916358EA0154801590000064000000
B1228483343858S01916291EA0154601590000064000000
B1228523343823S01916230EA0155001597000060000000
B1228563343794S01916170EA0155101592000056000000
B1229003343788S01916098EA0154401586000056000000
B1229043343818S01916038EA0154701592000060000000
B1229083343872S01916016EA0155001593000056000000
B1229123343928S01916042EA0154901594000056000000
B1229163343970S01916098EA0155001593000056000000
B1229203343997S01916170EA0154901592000056000000
B1229243344032S01916239EA0154801595000060000000
B1229283344066S01916310EA0155301597000064000000
B1229323344052S01916386EA0155701603000060000000
B1229363343997S01916414EA0155701595000064000000
B1229403343950S01916369EA0154801590000068000000
B1229443343967S01916304EA0154801593000068000000
B1229483344027S01916297EA0155301598000072000000
B1229523344058S01916369EA0155001589000080000000
B1229563344013S01916432EA0154501588000088015000
B1230003343950S01916408EA0154301578000088015000
B1230043343955S01916330EA0152901565000100000000
B1230083344028S01916322EA0152601573000104000000
B1230123344054S01916406EA0153401578000100000000
B1230163343993S01916454EA0153301571000096015000
B1230203343946S01916392EA0152501558000092015000
B1230243343996S01916347EA0152901582000088000000
B1230283344037S01916408EA0153701567000084000000
B1230323344001S01916493EA0151901558000088000000
B1230363343929S01916519EA0152501579000096000000
B1230403343887S01916474EA0154401589000084000000
B1230443343905S01916409EA0153801572000080000000
B1230483343963S01916401EA0153401579000084000000
B1230523343994S01916466EA0153001564000080000000
B1230563343957S01916534EA0152601569000088015000
B1231003343898S01916518EA0153101572000084015000
B1231043343897S01916448EA0152401558000088000000
B1231083343957S01916447EA0151701556000092015000
B1231123343959S01916526EA0150301531000092015000
B1231163343889S01916552EA0149501539000092015000
B1231203343851S01916488EA0150301543000084015000
B1231243343883S01916419EA0149701537000084015000
B1231283343942S01916422EA0150301546000076015000
B1231323343966S01916486EA0150301537000076000000
B1231363343924S01916545EA0148901524000076015000
B1231403343866S01916516EA0148401526000080015000
B1231443343861S01916438EA0148301519000076015000
B1231483343880S01916360EA0147601513000076000000
B1231523343901S01916292EA0148101530000084000000
B1231563343922S01916235EA0149001528000072000000
B1232003343949S01916172EA0148301524000072000000
B1232043343981S01916111EA0148501526000068000000
B1232083343994S01916041EA0148701532000068000000
B1232123343957S01915992EA0149601537000072000000
B1232163343898S01916011EA0149901545000080000000
B1232203343872S01916075EA0150801549000076000000
B1232243343898S01916144EA0150701546000076000000
B1232283343959S01916161EA0151201558000072000000
B1232323343998S01916107EA0151701553000072000000
B1232363343961S01916042EA0150101537000088000000
B1232403343894S01916057EA0151001557000084000000
B1232443343884S01916132EA0151901552000076000000
B1232483343944S01916183EA0150901550000072000000
B1232523344004S01916148EA0152101575000072000000
B1232563344005S01916079EA0153501570000072000000
B1233003343946S01916046EA0152801568000072000000
B1233043343896S01916088EA0153701586000072000000
B1233083343902S01916158EA0154301572000072000000
B1233123343970S01916198EA0152501562000072000000
B1233163344037S01916170EA0153001582000076000000
B1233203344062S01916102EA0154601592000080000000
B1233243344030S01916042EA0155301592000080000000
B1233283343966S01916049EA0155301596000076000000
B1233323343944S01916122EA0156001604000076000000
B1233363343992S01916178EA0156301603000072000000
B1233403344056S01916146EA0155901600000072000000
B1233443344056S01916070EA0156801615000076000000
B1233483343994S01916053EA0157001607000072000000
B1233523343965S01916137EA0155301590000076000000
B1233563344024S01916202EA0156201616000080000000
B1234003344085S01916166EA0158601631000076000000
B1234043344069S01916090EA0158001615000080000000
B1234083343994S01916096EA0157301621000080000000
B1234123343975S01916174EA0159701653000080000000
B1234163344017S01916223EA0161401661000080000000
B1234203344075S01916209EA0161501665000076000000
B1234243344096S01916146EA0162501676000072000000
B1234283344058S01916101EA0162901671000068000000
B1234323344000S01916136EA0162301671000076000000
B1234363343988S01916210EA0163701697000080000000
B1234403344020S01916265EA0165201699000080000000
B1234443344082S01916262EA0164301684000084000000
B1234483344110S01916197EA0164501704000080000000
B1234523344087S01916144EA0166401714000076000000
B1234563344030S01916145EA0166201704000084000000
B1235003344002S01916218EA0166001715000080000000
B1235043344041S01916270EA0167701731000072000000
B1235083344088S01916240EA0167701719000068000000
B1235123344075S01916171EA0167401727000068000000
B1235163344020S01916149EA0168401738000064000000
B1235203343976S01916189EA0169701750000072000000
B1235243343971S01916257EA0170001747000072000000
B1235283344005S01916318EA0169601748000088000000
B1235323344057S01916345EA0170301760000076000000
B1235363344104S01916330EA0170801759000072000000
B1235403344124S01916278EA0170801763000076000000
B1235443344097S01916230EA0171401767000080000000
B1235483344039S01916244EA0170401748000080000000
B1235523344019S01916328EA0170201766000076000000
B1235563344057S01916384EA0172101777000068000000
B1236003344109S01916367EA0171401759000080000000
B1236043344114S01916296EA0170801765000072000000
B1236083344066S01916261EA0171901775000068000000
B1236123344017S01916309EA0171701764000072000000
B1236163344037S01916393EA0171001762000076000000
B1236203344097S01916414EA0171901782000072000000
B1236243344127S01916373EA0173401784000072000000
B1236283344095S01916321EA0172401766000076000000
B1236323344031S01916339EA0172001784000084000000
B1236363344011S01916406EA0173801784000080000000
B1236403344046S01916473EA0172701774000080000000
B1236443344104S01916493EA0172901787000072000000
B1236483344145S01916467EA0173601786000064000000
B1236523344152S01916412EA0172901773000064000000
B1236563344124S01916354EA0171601768000060000000
B1237003344080S01916313EA0171901776000060000000
B1237043344031S01916285EA0172601781000060000000
B1237083343979S01916261EA0172601780000060000000
B1237123343924S01916237EA0172701778000056000000
B1237163343864S01916217EA0171701761000068000000
B1237203343796S01916193EA0169801745000076000000
B1237243343723S01916168EA0168801739000080000000
B1237283343650S01916141EA0168401737000088000000
B1237323343581S01916115EA0169101747000080000000
B1237363343517S01916090EA0169801753000072000000
B1237403343452S01916064EA0169701750000064000000
B1237443343386S01916037EA0169201744000076000000
B1237483343320S01916010EA0168701738000072000000
B1237523343253S01915980EA0168301733000068000000
B1237563343187S01915947EA0167501722000064000000
B1238003343118S01915911EA0166601716000072000000
B1238043343049S01915875EA0166301714000076000000
B1238083342984S01915838EA0166601718000068000000
B1238123342923S01915802EA0166501712000060000000
B1238163342860S01915764EA0165601705000060000000
B1238203342793S01915729EA0165401705000068000000
B1238243342728S01915700EA0165401703000072000000
B1238283342666S01915669EA0165101701000072000000
B1238323342605S01915635EA0164801696000068000000
B1238363342542S01915600EA0164501697000072000000
B1238403342483S01915570EA0165001704000072000000
B1238443342423S01915547EA0165001697000064000000
B1238483342360S01915513EA0163801686000064000000
B1238523342301S01915468EA0163401685000060000000
B1238563342245S01915422EA0163601686000060000000
B1239003342187S01915375EA0163101680000060000000
B1239043342129S01915329EA0162601673000056000000
B1239083342069S01915278EA0162201670000056000000
B1239123342011S01915234EA0162201673000060000000
B1239163341951S01915195EA0162101665000056000000
B1239203341887S01915153EA0160801654000068000000
B1239243341822S01915106EA0160601656000088000000
B1239283341762S01915061EA0161301666000096000000
B1239323341705S01915019EA0162001670000088000000
B1239363341647S01914978EA0161801665000080000000
B1239403341592S01914927EA0161401663000080000000
B1239443341535S01914879EA0161201660000076000000
B1239483341480S01914828EA0161001659000092000000
B1239523341427S01914779EA0161301664000080000000
B1239563341380S01914732EA0161801667000068000000
B1240003341333S01914684EA0161101657000080000000
B1240043341285S01914634EA0160501654000092000000
B1240083341240S01914585EA0160601654000088000000
B1240123341198S01914534EA0160401651000088000000
B1240163341157S01914482EA0159701642000084000000
B1240203341119S01914429EA0159201640000084000000
B1240243341081S01914380EA0159001635000084000000
B1240283341043S01914334EA0158401626000068000000
B1240323341006S01914287EA0157101616000064000000
B1240363340968S01914241EA0156101601000072000000
B1240403340933S01914190EA0154901588000076000000
B1240443340893S01914138EA0153701583000092000000
B1240483340848S01914095EA0153701583000092000000
B1240523340800S01914055EA0153201571000088000000
B1240563340756S01914003EA0152401562000092000000
B1241003340705S01913945EA0151701562000088000000
B1241043340646S01913900EA0151301550000092000000
B1241083340585S01913861EA0150301544000088000000
B1241123340518S01913832EA0150001543000088000000
B1241163340447S01913828EA0149801539000080000000
B1241203340373S01913834EA0149501539000076000000
B1241243340302S01913840EA0148901528000072000000
B1241283340231S01913858EA0147001504000084000000
B1241323340158S01913883EA0145001487000080000000
B1241363340087S01913913EA0143701472000084000000
B1241403340016S01913945EA0142501463000088000000
B1241443339946S01913977EA0142401464000080000000
B1241483339881S01914005EA0142101459000068000000
B1241523339815S01914035EA0141601455000064000000
B1241563339751S01914065EA0141501453000056000000
B1242003339689S01914096EA0141201449000056000000
B1242043339623S01914126EA0140601441000052000000
B1242083339558S01914159EA0140101440000052000000
B1242123339493S01914192EA0139401424000064000000
B1242163339418S01914228EA0137601411000080000000
B1242203339347S01914256EA0137601416000076000000
B1242243339282S01914280EA0138201421000068000000
B1242283339223S01914303EA0138401420000060000000
B1242323339165S01914324EA0138201420000064000000
B1242363339113S01914345EA0138501427000060000000
B1242403339062S01914363EA0139001426000060000000
B1242443339012S01914382EA0138601424000064000000
B1242483338963S01914403EA0139101430000060000000
B1242523338910S01914420EA0138501418000064000000
B1242563338853S01914442EA0137801415000068000000
B1243003338791S01914463EA0138001422000076000000
B1243043338736S01914454EA0138801423000076000000
B1243083338720S01914403EA0138201416000076000000
B1243123338758S01914361EA0138101420000068000000
B1243163338822S01914369EA0138501423000076000000
B1243203338866S01914438EA0139101434000080000000
B1243243338844S01914525EA0140101436000080000000
B1243283338778S01914559EA0139801436000084000000
B1243323338720S01914532EA0139701437000096000000
B1243363338711S01914476EA0139801436000088000000
B1243403338748S01914432EA0139601431000080015000
B1243443338811S01914415EA0139601438000072015000
B1243483338878S01914421EA0140501447000068000000
B1243523338926S01914472EA0141801463000068000000
B1243563338932S01914553EA0142601464000068000000
B1244003338893S01914621EA0142501464000072000000
B1244043338836S01914638EA0142801473000072000000
B1244083338800S01914606EA0143801479000064000000
B1244123338807S01914555EA0144101481000060000000
B1244163338859S01914530EA0144101480000060015000
B1244203338922S01914560EA0144101479000064000000
B1244243338950S01914646EA0144401488000072000000
B1244283338924S01914728EA0145201495000076000000
B1244323338869S01914757EA0145401497000068000000
B1244363338826S01914728EA0145701504000064000000
B1244403338827S01914681EA0146701512000060000000
B1244443338869S01914655EA0146701508000056000000
B1244483338930S01914672EA0146201501000060000000
B1244523338976S01914741EA0145701498000064000000
B1244563338979S01914836EA0145901504000072000000
B1245003338935S01914901EA0146401504000072000000
B1245043338879S01914906EA0146001499000068000000
B1245083338850S01914861EA0145701500000068000000
B1245123338844S01914806EA0145901507000068000000
B1245163338839S01914762EA0147001518000064000000
B1245203338828S01914723EA0147601515000060000000
B1245243338820S01914677EA0146601504000064000000
B1245283338809S01914624EA0145901500000060000000
B1245323338796S01914569EA0145601499000068000000
B1245363338781S01914514EA0145901504000068000000
B1245403338772S01914459EA0146501512000064000000
B1245443338792S01914416EA0147801523000064000000
B1245483338845S01914407EA0147301508000072000000
B1245523338902S01914454EA0147101518000068000000
B1245563338918S01914533EA0147901519000068000000
B1246003338883S01914598EA0147801518000068000000
B1246043338828S01914607EA0148001523000068000000
B1246083338798S01914564EA0148101520000060000000
B1246123338819S01914511EA0147901522000060000000
B1246163338874S01914503EA0148401532000060015000
B1246203338922S01914558EA0149001530000060015000
B1246243338928S01914649EA0148201521000064000000
B1246283338880S01914710EA0148401534000064000000
B1246323338830S01914707EA0149801543000060000000
B1246363338811S01914660EA0149101529000060000000
B1246403338835S01914608EA0148601533000068000000
B1246443338885S01914598EA0149401540000064015000
B1246483338935S01914642EA0149601533000068015000
B1246523338948S01914736EA0148601525000072015000
B1246563338910S01914806EA0148401530000072015000
B1247003338856S01914810EA0148701531000072015000
B1247043338832S01914766EA0148501524000068000000
B1247083338836S01914711EA0148101525000072000000
B1247123338844S01914664EA0148101525000076000000
B1247163338846S01914618EA0147601513000068000000
B1247203338849S01914562EA0146301503000076000000
B1247243338854S01914502EA0146001503000072000000
B1247283338857S01914446EA0147001517000068000000
B1247323338862S01914394EA0147401516000064000000
B1247363338870S01914338EA0146701511000064000000
B1247403338880S01914282EA0146701513000060000000
B1247443338889S01914226EA0146401502000064000000
B1247483338871S01914166EA0145001492000068000000
B1247523338820S01914160EA0145501510000072000000
B1247563338791S01914211EA0146901510000072000000
B1248003338797S01914283EA0146201500000076000000
B1248043338836S01914347EA0145101487000076000000
B1248083338882S01914406EA0144701489000072000000
B1248123338926S01914458EA0144901489000064000000
B1248163338967S01914507EA0144601481000064000000
B1248203338979S01914585EA0142601457000076000000
B1248243338924S01914642EA0141501457000076000000
B1248283338862S01914632EA0141801461000084000000
B1248323338822S01914588EA0141601456000080000000
B1248363338791S01914538EA0141001449000076000000
B1248403338766S01914486EA0140401443000080000000
B1248443338754S01914425EA0139501433000072000000
B1248483338748S01914360EA0139001432000072000000
B1248523338744S01914296EA0139001430000068000000
B1248563338741S01914238EA0139401436000076000000
B1249003338740S01914183EA0139601435000072000000
B1249043338740S01914125EA0139601438000068000000
B1249083338742S01914065EA0140301448000064000000
B1249123338785S01914029EA0141201459000060000000
B1249163338843S01914059EA0141601448000068000000
B1249203338845S01914142EA0140201432000076000000
B1249243338787S01914170EA0139201435000084000000
B1249283338742S01914131EA0140501456000084000000
B1249323338742S01914074EA0142001466000076000000
B1249363338787S01914043EA0142901472000076000000
B1249403338844S01914070EA0143401476000072000000
B1249443338865S01914146EA0143401471000080000000
B1249483338824S01914204EA0143101474000084000000
B1249523338766S01914213EA0144201486000080000000
B1249563338715S01914190EA0144701490000072000000
B1250003338706S01914129EA0144701488000068000000
B1250043338749S01914090EA0144701491000064000000
B1250083338811S01914112EA0144901490000060000000
B1250123338841S01914192EA0144801489000068000000
B1250163338814S01914267EA0145301499000076000000
B1250203338757S01914280EA0146001502000072000000
B1250243338727S01914229EA0146001500000064000000
B1250283338757S01914176EA0146001503000060000000
B1250323338818S01914182EA0146401506000060015000
B1250363338853S01914255EA0146701509000060000000
B1250403338832S01914330EA0147001513000060000000
B1250443338775S01914346EA0147101513000068000000
B1250483338742S01914298EA0147201515000064000000
B1250523338765S01914244EA0147501517000060000000
B1250563338823S01914243EA0147601517000064015000
B1251003338869S01914311EA0147101510000068015000
B1251043338857S01914402EA0147501525000076000000
B1251083338809S01914445EA0149401542000064000000
B1251123338766S01914428EA0149901539000060000000
B1251163338768S01914373EA0149001528000072000000
B1251203338822S01914355EA0148801535000072000000
B1251243338870S01914407EA0149501537000064000000
B1251283338865S01914491EA0149401539000060000000
B1251323338814S01914533EA0150101544000060000000
B1251363338771S01914503EA0149901538000060000000
B1251403338776S01914447EA0149401538000060000000
B1251443338823S01914425EA0149901543000060000000
B1251483338874S01914460EA0150001538000060015000
B1251523338876S01914549EA0149401534000072015000
B1251563338822S01914599EA0150201551000076000000
B1252003338778S01914580EA0150801548000064000000
B1252043338766S01914524EA0150001536000064000000
B1252083338774S01914465EA0149501541000064000000
B1252123338787S01914415EA0150601555000060000000
B1252163338809S01914367EA0151201556000056000000
B1252203338835S01914319EA0151301558000056000000
B1252243338888S01914293EA0150901554000060000000
B1252283338947S01914322EA0151201560000068000000
B1252323338974S01914387EA0152101566000064000000
B1252363338962S01914459EA0151501550000064000000
B1252403338908S01914508EA0149801534000068000000
B1252443338845S01914525EA0149301542000064000000
B1252483338788S01914536EA0150401554000068000000
B1252523338732S01914541EA0150601546000060000000
B1252563338684S01914508EA0149301535000060000000
B1253003338659S01914454EA0148301527000064000000
B1253043338674S01914399EA0148101526000060000000
B1253083338718S01914367EA0148001521000064000000
B1253123338774S01914348EA0147301513000076000000
B1253163338833S01914332EA0146901511000080000000
B1253203338893S01914319EA0146901514000076000000
B1253243338944S01914346EA0147901526000068000000
B1253283338965S01914413EA0148101507000068000000
B1253323338930S01914490EA0146301500000072000000
B1253363338872S01914507EA0147101519000076000000
B1253403338844S01914463EA0147801517000068000000
B1253443338872S01914410EA0147601515000064000000
B1253483338935S01914413EA0147701519000068000000
B1253523338976S01914477EA0148101521000064000000
B1253563338967S01914559EA0148001520000068015000
B1254003338914S01914598EA0148101522000080015000
B1254043338869S01914571EA0148101520000072015000
B1254083338876S01914512EA0147801520000072015000
B1254123338932S01914490EA0148001520000068015000
B1254163338986S01914543EA0147801515000068015000
B1254203338978S01914629EA0147301506000068015000
B1254243338917S01914667EA0146001497000084015000
B1254283338870S01914634EA0145701498000080015000
B1254323338883S01914577EA0146001501000080015000
B1254363338945S01914576EA0145501492000088015000
B1254403338980S01914659EA0144801487000084015000
B1254443338947S01914737EA0144601480000084015000
B1254483338889S01914732EA0144001479000088015000
B1254523338854S01914686EA0144101483000080015000
B1254563338828S01914638EA0144501486000076000000
B1255003338814S01914588EA0144801492000072000000
B1255043338814S01914542EA0145701504000072000000
B1255083338818S01914499EA0145901496000064000000
B1255123338823S01914445EA0144701486000064000000
B1255163338820S01914390EA0144601488000064000000
B1255203338811S01914339EA0144401481000060000000
B1255243338801S01914285EA0143201471000068000000
B1255283338785S01914225EA0143001472000064000000
B1255323338775S01914164EA0142901470000068000000
B1255363338772S01914107EA0143201473000076000000
B1255403338772S01914051EA0142501463000072000000
B1255443338765S01913992EA0142001456000072000000
B1255483338724S01913953EA0141601455000064000000
B1255523338671S01913952EA0141901464000064000000
B1255563338620S01913961EA0142501466000064000000
B1256003338567S01913970EA0141901456000064000000
B1256043338506S01913988EA0141001447000064000000
B1256083338445S01914010EA0140601445000064000000
B1256123338388S01914038EA0140601445000060000000
B1256163338334S01914073EA0140501444000056000000
B1256203338278S01914107EA0140401442000060000000
B1256243338225S01914139EA0140301442000060000000
B1256283338176S01914177EA0140301442000060000000
B1256323338125S01914216EA0140201440000056000000
B1256363338077S01914257EA0140201437000052000000
B1256403338029S01914303EA0139801433000048000000
B1256443337981S01914348EA0139501432000048000000
B1256483337930S01914386EA0139301428000052000000
B1256523337879S01914425EA0138801421000052000000
B1256563337825S01914471EA0137301401000052000000
B1257003337765S01914523EA0135901392000060000000
B1257043337706S01914573EA0135201384000072000000
B1257083337649S01914625EA0134301375000088000000
B1257123337593S01914677EA0133801372000084000000
B1257163337544S01914732EA0134201377000072000000
B1257203337494S01914777EA0133901369000072000000
B1257243337441S01914820EA0132501353000068000000
B1257283337387S01914872EA0131001339000068000000
B1257323337331S01914928EA0130001333000076000000
B1257363337280S01914985EA0130101334000068000000
B1257403337232S01915039EA0129801327000064000000
B1257443337182S01915092EA0129001318000068000000
B1257483337134S01915151EA0128501316000068000000
B1257523337089S01915216EA0127901306000080000000
B1257563337043S01915286EA0126701293000076000000
B1258003336994S01915349EA0126001288000084000000
B1258043336943S01915408EA0125601282000092000000
B1258083336891S01915469EA0124601275000088000000
B1258123336841S01915531EA0124201270000084000000
B1258163336795S01915598EA0124201270000076000000
B1258203336752S01915667EA0123701263000072000000
B1258243336704S01915733EA0123301265000076000000
B1258283336653S01915789EA0124001271000080000000
B1258323336603S01915834EA0124001270000096000000
B1258363336556S01915872EA0124501277000080000000
B1258403336518S01915902EA0124801276000064000000
B1258443336480S01915927EA0124401267000060000000
B1258483336439S01915940EA0123101249000060000000
B1258523336405S01915903EA0120801226000064000000
B1258563336426S01915836EA0119101222000076000000
B1259003336492S01915799EA0118601211000072000000
B1259043336575S01915798EA0116901192000080000000
B1259083336660S01915810EA0116301193000088000000
B1259123336734S01915816EA0117001199000084000000
B1259163336791S01915786EA0116701190000076000000
B1259203336807S01915726EA0115801181000092000000
B1259243336785S01915680EA0115701186000088000000
B1259283336743S01915674EA0116401190000084000000
B1259323336700S01915706EA0116301182000076000000
B1259363336659S01915750EA0115201171000072000000
B1259403336618S01915804EA0114301163000068000000
B1259443336583S01915868EA0113601156000072000000
B1259483336561S01915941EA0112901151000068000000
B1259523336544S01916016EA0112301143000064000000
B1259563336530S01916093EA0111601136000072000000
B1300003336521S01916171EA0110701128000064000000
B1300043336519S01916256EA0110001116000060000000
B1300083336519S01916344EA0108901105000060000000
B1300123336512S01916430EA0108201101000060000000
B1300163336497S01916513EA0107501093000060000000
B1300203336483S01916599EA0106701087000072000000
B1300243336465S01916685EA0106301080000064000000
B1300283336448S01916770EA0105101066000076000000
B1300323336438S01916867EA0103301046000084000000
B1300363336439S01916976EA0101601031000088000000
B1300403336451S01917085EA0102001046000088000000
B1300443336467S01917179EA0104301074000080000000
B1300483336504S01917259EA0106301082000080000000
B1300523336571S01917310EA0106301077000076000000
B1300563336642S01917310EA0105901076000076000000
B1301003336679S01917275EA0105501065000072000000
B1301043336673S01917231EA0103701045000064000000
B1301083336634S01917212EA0102101037000072000000
B1301123336584S01917215EA0102101041000068000000
B1301163336532S01917212EA0102501046000072000000
B1301203336486S01917205EA0103401055000068000000
B1301243336441S01917198EA0103601055000064000000
B1301283336405S01917182EA0103201047000060000000
B1301323336399S01917134EA0102201041000060000000
B1301363336436S01917086EA0101801034000056000000
B1301403336508S01917068EA0100901027000060000000
B1301443336590S01917104EA0100101017000064000000
B1301483336655S01917181EA0099401010000068000000
B1301523336678S01917283EA0099201012000060000000
B1301563336656S01917366EA0099201007000064000000
B1302003336603S01917400EA0098200994000080000000
B1302043336558S01917372EA0097100988000088000000
B1302083336558S01917312EA0096600982000100000000
B1302123336609S01917262EA0096300975000100000000
B1302163336691S01917254EA0095600970000092015000
B1302203336769S01917298EA0095700974000084000000
B1302243336828S01917374EA0095900973000076000000
B1302283336861S01917466EA0095400965000068000000
B1302323336883S01917565EA0094700958000076000000
B1302363336903S01917665EA0094900965000084000000
B1302403336920S01917754EA0096600987000088000000
B1302443336908S01917831EA0097300983000076000000
B1302483336860S01917874EA0097000988000088000000
B1302523336820S01917851EA0098200999000084000000
B1302563336835S01917800EA0099501008000096000000
B1303003336900S01917805EA0099801009000092015000
B1303043336938S01917887EA0099901019000084015000
B1303083336907S01917953EA0101101028000080015000
B1303123336867S01917933EA0101301028000080015000
B1303163336887S01917878EA0102301048000088015000
B1303203336950S01917882EA0103601050000084015000
B1303243336999S01917952EA0103401049000084015000
B1303283336993S01918035EA0104001062000076015000
B1303323336948S01918063EA0104501061000080015000
B1303363336929S01918016EA0104601067000084015000
B1303403336968S01917973EA0105701079000080015000
B1303443337033S01917992EA0105901069000088015000
B1303483337068S01918078EA0105101072000092015000
B1303523337045S01918148EA0106501089000088015000
B1303563337000S01918155EA0106301073000092015000
B1304003336993S01918090EA0105301074000092015000
B1304043337045S01918050EA0106201087000096015000
B1304083337114S01918081EA0106901086000088015000
B1304123337134S01918169EA0106401078000084015000
B1304163337090S01918224EA0106401086000076015000
B1304203337050S01918206EA0107101092000072015000
B1304243337034S01918156EA0107201091000076015000
B1304283337020S01918111EA0107701098000072000000
B1304323337007S01918069EA0107501095000068000000
B1304363336998S01918026EA0106301081000064000000
B1304403337016S01917973EA0105701077000060000000
B1304443337067S01917942EA0105901077000060000000
B1304483337136S01917951EA0105601071000060000000
B1304523337198S01918003EA0104801066000056000000
B1304563337228S01918089EA0104501061000056000000
B1305003337220S01918180EA0103401045000068000000
B1305043337199S01918269EA0102401042000084000000
B1305083337179S01918355EA0102001035000084000000
B1305123337158S01918443EA0100901022000092000000
B1305163337136S01918536EA0100201017000096000000
B1305203337114S01918631EA0100201020000096000000
B1305243337091S01918724EA0100301017000088000000
B1305283337068S01918818EA0099601009000096000000
B1305323337039S01918911EA0099301008000100000000
B1305363337013S01919001EA0099401008000088000000
B1305403336987S01919088EA0098701000000080000000
B1305443336961S01919178EA0098200995000080000000
B1305483336941S01919268EA0097900992000080000000
B1305523336924S01919359EA0097400986000080000000
B1305563336908S01919451EA0096700980000072000000
B1306003336891S01919543EA0096300975000072000000
B1306043336876S01919634EA0096200976000072000000
B1306083336867S01919727EA0096300977000064000000
B1306123336856S01919816EA0096200975000080000000
B1306163336846S01919909EA0095100962000076000000
B1306203336830S01920002EA0094500957000084000000
B1306243336809S01920089EA0094300955000084000000
B1306283336787S01920176EA0093900952000088000000
B1306323336769S01920263EA0093900950000088000000
B1306363336752S01920351EA0093400945000080000000
B1306403336735S01920439EA0092900943000076000000
B1306443336716S01920522EA0092700940000072000000
B1306483336694S01920604EA0092400936000064000000
B1306523336670S01920689EA0092200935000060000000
B1306563336648S01920772EA0092000931000056000000
B1307003336626S01920863EA0091800928000064000000
B1307043336600S01920954EA0091600929000076000000
B1307083336571S01921040EA0092100940000072000000
B1307123336543S01921116EA0093100947000064000000
B1307163336516S01921186EA0093300946000060000000
B1307203336487S01921253EA0093500950000060000000
B1307243336458S01921315EA0094300959000060000000
B1307283336428S01921376EA0094700960000056000000
B1307323336396S01921439EA0094300958000064000000
B1307363336362S01921506EA0094300957000064000000
B1307403336328S01921573EA0094100952000064000000
B1307443336292S01921636EA0093100941000064000000
B1307483336250S01921701EA0092000931000060000000
B1307523336210S01921768EA0091400924000076000000
B1307563336174S01921838EA0091200924000072000000
B1308003336140S01921909EA0091100921000064000000
B1308043336102S01921979EA0091000922000060000000
B1308083336064S01922044EA0091600933000064000000
B1308123336019S01922070EA0092000928000064000000
B1308163336009S01922025EA0091300925000076000000
B1308203336061S01921999EA0091400922000084000000
B1308243336128S01922047EA0091000925000084000000
B1308283336146S01922135EA0092400938000088000000
B1308323336111S01922194EA0092500937000080000000
B1308363336071S01922187EA0092600939000076000000
B1308403336066S01922146EA0092500936000072000000
B1308443336089S01922102EA0092100933000072000000
B1308483336118S01922061EA0091900931000068000000
B1308523336146S01922020EA0091600922000092000000
B1308563336172S01921976EA0090400908000084000000
B1309003336167S01921930EA0089200897000092000000
B1309043336119S01921921EA0088300889000088000000
B1309083336067S01921978EA0087200879000088000000
B1309123336040S01922074EA0086900877000088000000
B1309163336020S01922176EA0086600874000096000000
B1309203336006S01922277EA0086600876000096000000
B1309243335997S01922377EA0087000878000092000000
B1309283335994S01922479EA0086700873000096000000
B1309323335984S01922579EA0086300874000096000000
B1309363335951S01922663EA0087000880000096000000
B1309403335901S01922717EA0087100875000092000000
B1309443335847S01922717EA0086600870000104000000
B1309483335833S01922674EA0086100866000092000000
B1309523335872S01922637EA0086000868000092000000
B1309563335936S01922633EA0086400872000088000000
B1310003335998S01922679EA0086800875000092000000
B1310043336051S01922752EA0086500863000084000000
B1310083336109S01922830EA0085200852000084000000
B1310123336170S01922910EA0084200843000084000000
B1310163336230S01922992EA0083600837000080000000
B1310203336288S01923070EA0082900829000080000000
B1310243336347S01923148EA0081900818000084000000
B1310283336404S01923226EA0081100812000080000000
B1310323336461S01923303EA0080100798000084000000
B1310363336519S01923382EA0078700784000076000000
B1310403336575S01923465EA0078000779000076000000
B1310443336630S01923547EA0077700774000072000000
B1310483336685S01923628EA0077000766000076000000
B1310523336738S01923711EA0076400761000076000000
B1310563336789S01923792EA0076100757000072000000
B1311003336839S01923874EA0075100746000076000000
B1311043336891S01923954EA0074400739000080000000
B1311083336951S01924031EA0074000739000084000000
B1311123337011S01924100EA0074300736000088000000
B1311163337072S01924163EA0073600727000084000000
B1311203337136S01924222EA0072700722000076000000
B1311243337197S01924277EA0072400717000080000000
B1311283337259S01924327EA0071600709000080000000
B1311323337324S01924370EA0071200705000076000000
B1311363337390S01924408EA0070400695000088000000
B1311403337461S01924438EA0069600687000084000000
B1311443337531S01924460EA0068800679000088000000
B1311483337604S01924474EA0067900666000092000000
B1311523337676S01924491EA0066700655000092000000
B1311563337752S01924518EA0065800647000088000000
B1312003337829S01924552EA0064800638000092000000
B1312043337903S01924589EA0064600637000088000000
B1312083337973S01924620EA0064900643000096000000
B1312123338035S01924633EA0066200657000084000000
B1312163338072S01924600EA0066800659000088000000
B1312203338051S01924565EA0067000664000088000000
B1312243338004S01924589EA0067800674000084000000
B1312283337982S01924669EA0067700665000088000000
B1312323338014S01924760EA0067000659000088000000
B1312363338078S01924789EA0067100668000088000000
B1312403338115S01924755EA0068400681000104000000
B1312443338102S01924720EA0069100687000092000000
B1312483338061S01924717EA0069500690000084000000
B1312523338022S01924768EA0069700687000080000000
B1312563338009S01924860EA0068900681000076000000
B1313003338040S01924946EA0069100684000084000000
B1313043338103S01924981EA0068900681000084000000
B1313083338154S01924960EA0069300691000084000000
B1313123338163S01924917EA0069800694000080000000
B1313163338135S01924897EA0070200697000076000000
B1313203338091S01924917EA0070500701000076000000
B1313243338051S01924976EA0070400696000072000000
B1313283338024S01925058EA0070100697000080000000
B1313323338031S01925151EA0070400700000068000000
B1313363338073S01925228EA0070000689000064000000
B1313413338152S01925271EA0069300693000080000000
B1313453338212S01925274EA0071000711000080000000
B1313493338237S01925242EA0071700712000076000000
B1313533338213S01925215EA0071200707000084000000
B1313573338167S01925242EA0071000707000080000000
B1314013338146S01925322EA0071400713000084000000
B1314053338167S01925406EA0072200722000096000000
B1314093338222S01925448EA0072300724000092000000
B1314133338269S01925437EA0072800727000080000000
B1314173338281S01925402EA0072700725000080000000
B1314213338260S01925375EA0072600724000072000000
B1314253338224S01925366EA0071900715000076000000
B1314293338178S01925358EA0071300709000084000000
B1314333338125S01925356EA0071200711000096000000
B1314373338066S01925370EA0071700722000096000000
B1314413338026S01925441EA0073200737000096000000
B1314453338034S01925540EA0074200741000096000000
B1314493338091S01925605EA0074700745000096000000
B1314533338147S01925604EA0074600743000100000000
B1314573338155S01925561EA0073600731000100000000
B1315013338134S01925508EA0072400728000096000000
B1315053338111S01925460EA0074100752000084000000
B1315093338083S01925427EA0075600762000084000000
B1315133338039S01925454EA0076300763000092000000
B1315173338021S01925545EA0075800751000100000000
B1315213338068S01925631EA0075300764000100000000
B1315253338129S01925643EA0077000776000088000000
B1315293338155S01925606EA0077500776000080000000
B1315333338131S01925577EA0077500775000076000000
B1315373338082S01925593EA0077700781000084000000
B1315413338047S01925664EA0078900790000084000000
B1315453338059S01925756EA0079100789000084000000
B1315493338113S01925820EA0079500799000076000000
B1315533338170S01925825EA0080600809000076000000
B1315573338190S01925788EA0080800808000072000000
B1316013338163S01925764EA0080500805000076000000
B1316053338113S01925785EA0080500813000080000000
B1316093338077S01925850EA0081600825000080000000
B1316133338074S01925937EA0082200825000072015000
B1316173338105S01926020EA0081900821000076000000
B1316213338164S01926073EA0082400832000080000000
B1316253338216S01926074EA0083800846000084000000
B1316293338229S01926039EA0084200843000076000000
B1316333338202S01926015EA0083900844000076000000
B1316373338157S01926034EA0084300846000076000000
B1316413338126S01926107EA0084300847000084000000
B1316453338142S01926199EA0084800855000080000000
B1316493338193S01926260EA0085300858000072015000
B1316533338250S01926269EA0085500860000072000000
B1316573338285S01926237EA0085300853000072000000
B1317013338282S01926193EA0085000857000068000000
B1317053338250S01926175EA0085500862000064000000
B1317093338203S01926199EA0085400855000060000000
B1317133338148S01926229EA0084600850000068000000
B1317173338094S01926241EA0084400850000072000000
B1317213338050S01926221EA0084400853000072000000
B1317253338025S01926182EA0084100843000072000000
B1317293338053S01926134EA0083300840000084000000
B1317333338112S01926125EA0082900836000084000000
B1317373338170S01926163EA0083200842000068000000
B1317413338207S01926236EA0083400834000064000000
B1317453338207S01926331EA0082100823000064000000
B1317493338174S01926410EA0081800823000060015000
B1317533338122S01926445EA0081500820000068000000
B1317573338079S01926432EA0081900830000072015000
B1318013338061S01926399EA0082500834000064000000
B1318053338065S01926360EA0082400829000064000000
B1318093338095S01926328EA0081800820000056000000
B1318133338144S01926308EA0080900810000068000000
B1318173338200S01926288EA0080100801000068000000
B1318213338247S01926250EA0079800801000076000000
B1318253338273S01926202EA0079600797000076000000
B1318293338287S01926152EA0079800803000084000000
B1318333338295S01926110EA0080200806000096000000
B1318373338297S01926068EA0080400809000080000000
B1318413338298S01926025EA0079900800000084000000
B1318453338306S01925974EA0079400795000080000000
B1318493338317S01925922EA0079200798000088000000
B1318533338325S01925874EA0079500797000084000000
B1318573338333S01925829EA0079200794000088000000
B1319013338341S01925781EA0078700787000100000000
B1319053338351S01925729EA0077800777000100000000
B1319093338347S01925673EA0076700770000092000000
B1319133338343S01925618EA0076800773000084000000
B1319173338338S01925567EA0076700771000088000000
B1319213338334S01925518EA0076100764000084000000
B1319253338333S01925467EA0075900759000088000000
B1319293338339S01925415EA0075300755000088000000
B1319333338347S01925362EA0075100754000084000000
B1319373338351S01925313EA0075000755000084000000
B1319413338356S01925265EA0075200754000072000000
B1319453338362S01925218EA0074900752000084000000
B1319493338368S01925168EA0074600748000080000000
B1319533338372S01925122EA0074700749000072000000
B1319573338368S01925079EA0074600746000072000000
B1320013338351S01925041EA0074200742000072000000
B1320053338325S01925008EA0073900741000076000000
B1320093338297S01924981EA0073900741000080000000
B1320133338265S01924956EA0073700736000084000000
B1320173338234S01924929EA0073000729000080000000
B1320213338206S01924899EA0072700729000072000000
B1320253338178S01924877EA0073000731000068000000
B1320293338148S01924858EA0072600724000072000000
B1320333338116S01924836EA0072000720000076000000
B1320373338089S01924807EA0071800721000084000000
B1320413338065S01924777EA0071900719000076000000
B1320453338042S01924745EA0071500711000072000000
B1320493338018S01924707EA0070200695000072000000
B1320533337985S01924672EA0069100690000084000000
B1320573337947S01924643EA0068900687000080000000
B1321013337910S01924609EA0068400681000076000000
B1321053337883S01924565EA0068200681000076000000
B1321093337861S01924521EA0068000677000080000000
B1321133337840S01924474EA0067800678000076000000
B1321173337822S01924431EA0067800675000080000000
B1321213337797S01924395EA0067400670000076000000
B1321253337770S01924360EA0066600663000076000000
B1321293337753S01924321EA0066400663000088000000
B1321333337749S01924282EA0066600663000108000000
B1321373337745S01924243EA0065800653000104000000
B1321413337745S01924197EA0065200644000100000000
B1321453337756S01924148EA0064300636000088000000
B1321493337767S01924098EA0063400625000084000000
B1321533337769S01924044EA0062400617000088000000
B1321573337761S01923992EA0061800606000088000000
B1322013337747S01923939EA0060600599000084000000
B1322053337728S01923893EA0061100609000092000000
B1322093337715S01923858EA0061600608000088000000
B1322133337706S01923820EA0060800599000084000000
B1322173337701S01923777EA0059700587000088000000
B1322213337701S01923732EA0059100586000088000000
B1322253337709S01923689EA0059100582000092000000
B1322293337725S01923645EA0058300572000100000000
B1322333337752S01923599EA0057100561000100000000
B1322373337797S01923564EA0056600554000088000000
B1322413337869S01923564EA0055700543000088000000
B1322453337949S01923604EA0054900538000084000000
B1322493338021S01923664EA0054900540000092000000
B1322533338089S01923732EA0054400529000088000000
B1322573338157S01923799EA0053300517000080000000
B1323013338228S01923868EA0051800499000080000000
B1323053338303S01923941EA0050000485000088000000
B1323093338381S01924014EA0049200477000092000000
B1323133338459S01924084EA0048700470000096000000
B1323173338534S01924157EA0048500473000096000000
B1323213338603S01924231EA0048500470000096000000
B1323253338670S01924309EA0048400469000096000000
B1323293338729S01924392EA0048000462000092000000
B1323333338791S01924474EA0047600460000088000000
B1323373338849S01924556EA0047500459000084000000
B1323413338905S01924639EA0047000455000096000000
B1323453338963S01924724EA0047400458000096000000
B1323493339021S01924811EA0048400474000088000000
B1323533339074S01924898EA0049200477000092000000
B1323573339121S01924992EA0049100481000092000000
B1324013339158S01925090EA0049200478000088000000
B1324053339191S01925192EA0048900477000092000000
B1324093339222S01925292EA0049400483000096000000
B1324133339251S01925392EA0049700488000092000000
B1324173339279S01925489EA0049900488000084000000
B1324213339312S01925583EA0050100490000076000000
B1324253339347S01925675EA0050300493000076000000
B1324293339381S01925766EA0050600495000076000000
B1324333339417S01925857EA0050300488000080000000
B1324373339457S01925947EA0049800479000084000000
B1324413339507S01926030EA0048800468000084000000
B1324453339574S01926076EA0047900454000080000000
B1324493339645S01926076EA0046400448000088000000
B1324533339706S01926051EA0046800459000100000000
B1324573339763S01926033EA0048200474000096000000
B1325013339819S01926024EA0048800473000100000000
B1325053339880S01926013EA0047600458000100000000
B1325093339941S01925993EA0046500448000096000000
B1325133340000S01925965EA0045700438000096000000
B1325173340055S01925935EA0044700429000088000000
B1325213340107S01925896EA0043800414000088000000
B1325253340152S01925846EA0042400401000088000000
B1325293340188S01925785EA0041200393000104000000
B1325333340205S01925720EA0041300392000112000000
B1325373340208S01925655EA0040200372000120000000
B1325413340195S01925588EA0038100352000116000000
B1325453340170S01925528EA0036700343000124000000
B1325493340139S01925478EA0035700326000120000000
B1325533340107S01925428EA0033600303000116000000
B1325573340081S01925376EA0031400280000116000000
B1326013340052S01925330EA0028900255000108000000
B1326053340022S01925283EA0027300233000104000000
B1326093339992S01925237EA0025000209000116000000
B1326133339966S01925192EA0023200198000124000000
B1326173339944S01925155EA0023000198000228000000
B1326213339927S01925128EA0023000198000276000000
B1326253339912S01925103EA0022900198000260000000
B1326293339898S01925085EA0023100199000448000000
B1326333339886S01925077EA0023100199000544000000
B1326373339881S01925077EA0023300199000540000000
B1326413339880S01925079EA0023400199000356000000
B1326453339880S01925079EA0023300199000236000000
B1326493339880S01925079EA0023300199000184000000
B1326533339880S01925079EA0023300199000124000000
B1326573339880S01925079EA0023300199000092000000
B1327013339880S01925079EA0023300199000064000000
G12330000007117A5600000000000000000000000000000000000000000000000
G8E8D9C9A5C2493868B8914E42A4C97BAA677969300000000513E2001E94FFAE7
G17568B1B03CBF89C738044A552FA1F5C6ABCC1B80000000000000000613EB9EA
